{
  "contractName": "Document",
  "abi": [
    {
      "inputs": [
        {
          "internalType": "string",
          "name": "documentName",
          "type": "string"
        },
        {
          "internalType": "string",
          "name": "documentHash",
          "type": "string"
        }
      ],
      "name": "setDocument",
      "outputs": [
        {
          "internalType": "address",
          "name": "",
          "type": "address"
        }
      ],
      "stateMutability": "nonpayable",
      "type": "function"
    },
    {
      "inputs": [
        {
          "internalType": "address",
          "name": "owner",
          "type": "address"
        },
        {
          "internalType": "string",
          "name": "documentName",
          "type": "string"
        }
      ],
      "name": "retrieveDocument",
      "outputs": [
        {
          "internalType": "string",
          "name": "",
          "type": "string"
        }
      ],
      "stateMutability": "view",
      "type": "function",
      "constant": true
    },
    {
      "inputs": [
        {
          "internalType": "address",
          "name": "requestant",
          "type": "address"
        },
        {
          "internalType": "string",
          "name": "documentName",
          "type": "string"
        },
        {
          "internalType": "bool",
          "name": "permission",
          "type": "bool"
        }
      ],
      "name": "setPermissionForDocument",
      "outputs": [],
      "stateMutability": "nonpayable",
      "type": "function"
    },
    {
      "inputs": [
        {
          "internalType": "address",
          "name": "requestant",
          "type": "address"
        },
        {
          "internalType": "string",
          "name": "documentName",
          "type": "string"
        }
      ],
      "name": "getPermissionForDocument",
      "outputs": [
        {
          "internalType": "bool",
          "name": "",
          "type": "bool"
        }
      ],
      "stateMutability": "view",
      "type": "function",
      "constant": true
    },
    {
      "inputs": [
        {
          "internalType": "address",
          "name": "owner",
          "type": "address"
        },
        {
          "internalType": "string",
          "name": "documentName",
          "type": "string"
        }
      ],
      "name": "checkPermissionForDocument",
      "outputs": [
        {
          "internalType": "bool",
          "name": "",
          "type": "bool"
        }
      ],
      "stateMutability": "view",
      "type": "function",
      "constant": true
    }
  ],
  "bytecode": "0x608060405234801561001057600080fd5b50611099806100206000396000f3fe608060405234801561001057600080fd5b50600436106100575760003560e01c806345dc27691461005c57806383869a021461008c5780639c64d0ae146100a8578063b1054c21146100d8578063da12b12314610108575b600080fd5b61007660048036038101906100719190610c11565b610138565b6040516100839190610d0a565b60405180910390f35b6100a660048036038101906100a19190610d64565b6103d6565b005b6100c260048036038101906100bd9190610dd8565b61058b565b6040516100cf9190610e68565b60405180910390f35b6100f260048036038101906100ed9190610c11565b610743565b6040516100ff9190610e92565b60405180910390f35b610122600480360381019061011d9190610c11565b6108f2565b60405161012f9190610e92565b60405180910390f35b6060600083838080601f016020809104026020016040519081016040528093929190818152602001838380828437600081840152601f19601f82011690508083019250505050505050905060008151036101c7576040517f08c379a00000000000000000000000000000000000000000000000000000000081526004016101be90610ef9565b60405180910390fd5b600073ffffffffffffffffffffffffffffffffffffffff168573ffffffffffffffffffffffffffffffffffffffff1603610236576040517f08c379a000000000000000000000000000000000000000000000000000000000815260040161022d90610f8b565b60405180910390fd5b600160008673ffffffffffffffffffffffffffffffffffffffff1673ffffffffffffffffffffffffffffffffffffffff16815260200190815260200160002060003373ffffffffffffffffffffffffffffffffffffffff1673ffffffffffffffffffffffffffffffffffffffff16815260200190815260200160002084846040516102c2929190610fea565b908152602001604051809103902060009054906101000a900460ff166102e757600080fd5b6000808673ffffffffffffffffffffffffffffffffffffffff1673ffffffffffffffffffffffffffffffffffffffff1681526020019081526020016000208484604051610335929190610fea565b9081526020016040518091039020805461034e90611032565b80601f016020809104026020016040519081016040528092919081815260200182805461037a90611032565b80156103c75780601f1061039c576101008083540402835291602001916103c7565b820191906000526020600020905b8154815290600101906020018083116103aa57829003601f168201915b50505050509150509392505050565b600083838080601f016020809104026020016040519081016040528093929190818152602001838380828437600081840152601f19601f8201169050808301925050505050505090506000815103610463576040517f08c379a000000000000000000000000000000000000000000000000000000000815260040161045a90610ef9565b60405180910390fd5b600073ffffffffffffffffffffffffffffffffffffffff168573ffffffffffffffffffffffffffffffffffffffff16036104d2576040517f08c379a00000000000000000000000000000000000000000000000000000000081526004016104c990610f8b565b60405180910390fd5b81600160003373ffffffffffffffffffffffffffffffffffffffff1673ffffffffffffffffffffffffffffffffffffffff16815260200190815260200160002060008773ffffffffffffffffffffffffffffffffffffffff1673ffffffffffffffffffffffffffffffffffffffff168152602001908152602001600020858560405161055f929190610fea565b908152602001604051809103902060006101000a81548160ff0219169083151502179055505050505050565b60008085858080601f016020809104026020016040519081016040528093929190818152602001838380828437600081840152601f19601f8201169050808301925050505050505090506000815103610619576040517f08c379a000000000000000000000000000000000000000000000000000000000815260040161061090610ef9565b60405180910390fd5b60018060003373ffffffffffffffffffffffffffffffffffffffff1673ffffffffffffffffffffffffffffffffffffffff16815260200190815260200160002060003373ffffffffffffffffffffffffffffffffffffffff1673ffffffffffffffffffffffffffffffffffffffff16815260200190815260200160002087876040516106a6929190610fea565b908152602001604051809103902060006101000a81548160ff02191690831515021790555083836000803373ffffffffffffffffffffffffffffffffffffffff1673ffffffffffffffffffffffffffffffffffffffff168152602001908152602001600020888860405161071b929190610fea565b90815260200160405180910390209190610736929190610aa1565b5030915050949350505050565b60008083838080601f016020809104026020016040519081016040528093929190818152602001838380828437600081840152601f19601f82011690508083019250505050505050905060008151036107d1576040517f08c379a00000000000000000000000000000000000000000000000000000000081526004016107c890610ef9565b60405180910390fd5b600073ffffffffffffffffffffffffffffffffffffffff168573ffffffffffffffffffffffffffffffffffffffff1603610840576040517f08c379a000000000000000000000000000000000000000000000000000000000815260040161083790610f8b565b60405180910390fd5b600160008673ffffffffffffffffffffffffffffffffffffffff1673ffffffffffffffffffffffffffffffffffffffff16815260200190815260200160002060003373ffffffffffffffffffffffffffffffffffffffff1673ffffffffffffffffffffffffffffffffffffffff16815260200190815260200160002084846040516108cc929190610fea565b908152602001604051809103902060009054906101000a900460ff169150509392505050565b60008083838080601f016020809104026020016040519081016040528093929190818152602001838380828437600081840152601f19601f8201169050808301925050505050505090506000815103610980576040517f08c379a000000000000000000000000000000000000000000000000000000000815260040161097790610ef9565b60405180910390fd5b600073ffffffffffffffffffffffffffffffffffffffff168573ffffffffffffffffffffffffffffffffffffffff16036109ef576040517f08c379a00000000000000000000000000000000000000000000000000000000081526004016109e690610f8b565b60405180910390fd5b600160003373ffffffffffffffffffffffffffffffffffffffff1673ffffffffffffffffffffffffffffffffffffffff16815260200190815260200160002060008673ffffffffffffffffffffffffffffffffffffffff1673ffffffffffffffffffffffffffffffffffffffff1681526020019081526020016000208484604051610a7b929190610fea565b908152602001604051809103902060009054906101000a900460ff169150509392505050565b828054610aad90611032565b90600052602060002090601f016020900481019282610acf5760008555610b16565b82601f10610ae857803560ff1916838001178555610b16565b82800160010185558215610b16579182015b82811115610b15578235825591602001919060010190610afa565b5b509050610b239190610b27565b5090565b5b80821115610b40576000816000905550600101610b28565b5090565b600080fd5b600080fd5b600073ffffffffffffffffffffffffffffffffffffffff82169050919050565b6000610b7982610b4e565b9050919050565b610b8981610b6e565b8114610b9457600080fd5b50565b600081359050610ba681610b80565b92915050565b600080fd5b600080fd5b600080fd5b60008083601f840112610bd157610bd0610bac565b5b8235905067ffffffffffffffff811115610bee57610bed610bb1565b5b602083019150836001820283011115610c0a57610c09610bb6565b5b9250929050565b600080600060408486031215610c2a57610c29610b44565b5b6000610c3886828701610b97565b935050602084013567ffffffffffffffff811115610c5957610c58610b49565b5b610c6586828701610bbb565b92509250509250925092565b600081519050919050565b600082825260208201905092915050565b60005b83811015610cab578082015181840152602081019050610c90565b83811115610cba576000848401525b50505050565b6000601f19601f8301169050919050565b6000610cdc82610c71565b610ce68185610c7c565b9350610cf6818560208601610c8d565b610cff81610cc0565b840191505092915050565b60006020820190508181036000830152610d248184610cd1565b905092915050565b60008115159050919050565b610d4181610d2c565b8114610d4c57600080fd5b50565b600081359050610d5e81610d38565b92915050565b60008060008060608587031215610d7e57610d7d610b44565b5b6000610d8c87828801610b97565b945050602085013567ffffffffffffffff811115610dad57610dac610b49565b5b610db987828801610bbb565b93509350506040610dcc87828801610d4f565b91505092959194509250565b60008060008060408587031215610df257610df1610b44565b5b600085013567ffffffffffffffff811115610e1057610e0f610b49565b5b610e1c87828801610bbb565b9450945050602085013567ffffffffffffffff811115610e3f57610e3e610b49565b5b610e4b87828801610bbb565b925092505092959194509250565b610e6281610b6e565b82525050565b6000602082019050610e7d6000830184610e59565b92915050565b610e8c81610d2c565b82525050565b6000602082019050610ea76000830184610e83565b92915050565b7f4d7573742070726f76696465206120646f63756d656e74206e616d6500000000600082015250565b6000610ee3601c83610c7c565b9150610eee82610ead565b602082019050919050565b60006020820190508181036000830152610f1281610ed6565b9050919050565b7f45524332303a207472616e736665722066726f6d20746865207a65726f20616460008201527f6472657373000000000000000000000000000000000000000000000000000000602082015250565b6000610f75602583610c7c565b9150610f8082610f19565b604082019050919050565b60006020820190508181036000830152610fa481610f68565b9050919050565b600081905092915050565b82818337600083830152505050565b6000610fd18385610fab565b9350610fde838584610fb6565b82840190509392505050565b6000610ff7828486610fc5565b91508190509392505050565b7f4e487b7100000000000000000000000000000000000000000000000000000000600052602260045260246000fd5b6000600282049050600182168061104a57607f821691505b60208210810361105d5761105c611003565b5b5091905056fea26469706673582212207144c8ec2dd1c6710cd1dd4bd747e09d84ba45ee55875fbb044efb6abc09047e64736f6c634300080e0033",
  "immutableReferences": {},
  "source": "// SPDX-License-Identifier: MIT\npragma solidity >=0.4.22 <0.9.0;\n\ncontract Document {\n    mapping(address => mapping(string => string)) private _documents;\n    mapping(address => mapping(address => mapping(string => bool)))\n        private _permissions;\n\n    // Used to store the hash of an document of the sender\n    function setDocument(\n        string calldata documentName,\n        string calldata documentHash\n    ) public returns (address) {\n        bytes memory documentNameBytes = bytes(documentName);\n        require(documentNameBytes.length != 0, \"Must provide a document name\");\n\n        _permissions[msg.sender][msg.sender][documentName] = true;\n        _documents[msg.sender][documentName] = documentHash;\n        return address(this);\n    }\n\n    // Used by the sender to get a document from the owner\n    function retrieveDocument(address owner, string calldata documentName)\n        public\n        view\n        returns (string memory)\n    {\n        bytes memory documentNameBytes = bytes(documentName);\n        require(documentNameBytes.length != 0, \"Must provide a document name\");\n        require(owner != address(0), \"ERC20: transfer from the zero address\");\n        require(_permissions[owner][msg.sender][documentName]);\n\n        return _documents[owner][documentName];\n    }\n\n    // Used by the sender to set a permission for a document for an address\n    function setPermissionForDocument(\n        address requestant,\n        string calldata documentName,\n        bool permission\n    ) public {\n        bytes memory documentNameBytes = bytes(documentName);\n        require(documentNameBytes.length != 0, \"Must provide a document name\");\n        require(requestant != address(0), \"ERC20: transfer from the zero address\");\n\n        _permissions[msg.sender][requestant][documentName] = permission;\n    }\n\n    // Used by the sender to see if an address has permission to see a document\n    function getPermissionForDocument(address requestant, string calldata documentName) public view returns (bool) {\n        bytes memory documentNameBytes = bytes(documentName);\n        require(documentNameBytes.length != 0, \"Must provide a document name\");\n        require(requestant != address(0), \"ERC20: transfer from the zero address\");\n\n        return _permissions[msg.sender][requestant][documentName];\n    }\n\n    // Check to see if the sender has permission to see a document\n    function checkPermissionForDocument(address owner, string calldata documentName) public view returns (bool) {\n        bytes memory documentNameBytes = bytes(documentName);\n        require(documentNameBytes.length != 0, \"Must provide a document name\");\n        require(owner != address(0), \"ERC20: transfer from the zero address\");\n\n        return _permissions[owner][msg.sender][documentName];\n    }\n}\n",
  "sourcePath": "/home/ton/Dev/F/TCC/tcc/blockchain/contracts/Document.sol",
  "compiler": {
    "name": "solc",
    "version": "0.8.14+commit.80d49f37.Emscripten.clang"
  },
  "schemaVersion": "3.4.7",
  "updatedAt": "2022-05-30T19:32:26.876Z",
  "networkType": "ethereum",
  "devdoc": {
    "kind": "dev",
    "methods": {},
    "version": 1
  },
  "userdoc": {
    "kind": "user",
    "methods": {},
    "version": 1
  }
}